{
  "contractName": "DocumentRegistry",
  "abi": [
    {
      "inputs": [],
      "stateMutability": "nonpayable",
      "type": "constructor"
    },
    {
      "anonymous": false,
      "inputs": [
        {
          "indexed": true,
          "internalType": "string",
          "name": "documentId",
          "type": "string"
        },
        {
          "indexed": true,
          "internalType": "address",
          "name": "owner",
          "type": "address"
        },
        {
          "indexed": true,
          "internalType": "address",
          "name": "revokedFrom",
          "type": "address"
        }
      ],
      "name": "DocumentAccessRevoked",
      "type": "event"
    },
    {
      "anonymous": false,
      "inputs": [
        {
          "indexed": true,
          "internalType": "string",
          "name": "documentId",
          "type": "string"
        },
        {
          "indexed": true,
          "internalType": "address",
          "name": "sharedBy",
          "type": "address"
        },
        {
          "indexed": true,
          "internalType": "address",
          "name": "sharedWith",
          "type": "address"
        }
      ],
      "name": "DocumentShared",
      "type": "event"
    },
    {
      "anonymous": false,
      "inputs": [
        {
          "indexed": true,
          "internalType": "string",
          "name": "documentId",
          "type": "string"
        },
        {
          "indexed": true,
          "internalType": "address",
          "name": "updatedBy",
          "type": "address"
        },
        {
          "indexed": false,
          "internalType": "uint256",
          "name": "version",
          "type": "uint256"
        }
      ],
      "name": "DocumentUpdated",
      "type": "event"
    },
    {
      "anonymous": false,
      "inputs": [
        {
          "indexed": true,
          "internalType": "string",
          "name": "documentId",
          "type": "string"
        },
        {
          "indexed": true,
          "internalType": "address",
          "name": "owner",
          "type": "address"
        },
        {
          "indexed": false,
          "internalType": "string",
          "name": "fileHash",
          "type": "string"
        }
      ],
      "name": "DocumentUploaded",
      "type": "event"
    },
    {
      "anonymous": false,
      "inputs": [
        {
          "indexed": true,
          "internalType": "string",
          "name": "documentId",
          "type": "string"
        },
        {
          "indexed": false,
          "internalType": "string",
          "name": "expectedHash",
          "type": "string"
        },
        {
          "indexed": false,
          "internalType": "string",
          "name": "actualHash",
          "type": "string"
        }
      ],
      "name": "IntegrityViolation",
      "type": "event"
    },
    {
      "inputs": [
        {
          "internalType": "string",
          "name": "",
          "type": "string"
        },
        {
          "internalType": "uint256",
          "name": "",
          "type": "uint256"
        }
      ],
      "name": "auditLogs",
      "outputs": [
        {
          "internalType": "string",
          "name": "documentId",
          "type": "string"
        },
        {
          "internalType": "address",
          "name": "actor",
          "type": "address"
        },
        {
          "internalType": "string",
          "name": "action",
          "type": "string"
        },
        {
          "internalType": "uint256",
          "name": "timestamp",
          "type": "uint256"
        },
        {
          "internalType": "string",
          "name": "details",
          "type": "string"
        }
      ],
      "stateMutability": "view",
      "type": "function",
      "constant": true
    },
    {
      "inputs": [],
      "name": "contractOwner",
      "outputs": [
        {
          "internalType": "address",
          "name": "",
          "type": "address"
        }
      ],
      "stateMutability": "view",
      "type": "function",
      "constant": true
    },
    {
      "inputs": [
        {
          "internalType": "string",
          "name": "",
          "type": "string"
        },
        {
          "internalType": "uint256",
          "name": "",
          "type": "uint256"
        }
      ],
      "name": "documentVersions",
      "outputs": [
        {
          "internalType": "string",
          "name": "documentId",
          "type": "string"
        },
        {
          "internalType": "string",
          "name": "fileHash",
          "type": "string"
        },
        {
          "internalType": "uint256",
          "name": "version",
          "type": "uint256"
        },
        {
          "internalType": "address",
          "name": "updatedBy",
          "type": "address"
        },
        {
          "internalType": "uint256",
          "name": "timestamp",
          "type": "uint256"
        },
        {
          "internalType": "string",
          "name": "updateReason",
          "type": "string"
        }
      ],
      "stateMutability": "view",
      "type": "function",
      "constant": true
    },
    {
      "inputs": [
        {
          "internalType": "string",
          "name": "",
          "type": "string"
        }
      ],
      "name": "documents",
      "outputs": [
        {
          "internalType": "string",
          "name": "documentId",
          "type": "string"
        },
        {
          "internalType": "string",
          "name": "fileName",
          "type": "string"
        },
        {
          "internalType": "string",
          "name": "fileHash",
          "type": "string"
        },
        {
          "internalType": "string",
          "name": "domain",
          "type": "string"
        },
        {
          "internalType": "address",
          "name": "owner",
          "type": "address"
        },
        {
          "internalType": "uint256",
          "name": "timestamp",
          "type": "uint256"
        },
        {
          "internalType": "bool",
          "name": "isActive",
          "type": "bool"
        },
        {
          "internalType": "string",
          "name": "ipfsHash",
          "type": "string"
        }
      ],
      "stateMutability": "view",
      "type": "function",
      "constant": true
    },
    {
      "inputs": [
        {
          "internalType": "string",
          "name": "",
          "type": "string"
        },
        {
          "internalType": "address",
          "name": "",
          "type": "address"
        }
      ],
      "name": "hasAccess",
      "outputs": [
        {
          "internalType": "bool",
          "name": "",
          "type": "bool"
        }
      ],
      "stateMutability": "view",
      "type": "function",
      "constant": true
    },
    {
      "inputs": [
        {
          "internalType": "string",
          "name": "",
          "type": "string"
        },
        {
          "internalType": "uint256",
          "name": "",
          "type": "uint256"
        }
      ],
      "name": "shareRecords",
      "outputs": [
        {
          "internalType": "string",
          "name": "documentId",
          "type": "string"
        },
        {
          "internalType": "address",
          "name": "sharedBy",
          "type": "address"
        },
        {
          "internalType": "address",
          "name": "sharedWith",
          "type": "address"
        },
        {
          "internalType": "uint256",
          "name": "timestamp",
          "type": "uint256"
        },
        {
          "internalType": "string",
          "name": "accessLevel",
          "type": "string"
        },
        {
          "internalType": "bool",
          "name": "isActive",
          "type": "bool"
        }
      ],
      "stateMutability": "view",
      "type": "function",
      "constant": true
    },
    {
      "inputs": [
        {
          "internalType": "address",
          "name": "",
          "type": "address"
        },
        {
          "internalType": "uint256",
          "name": "",
          "type": "uint256"
        }
      ],
      "name": "sharedWithUser",
      "outputs": [
        {
          "internalType": "string",
          "name": "",
          "type": "string"
        }
      ],
      "stateMutability": "view",
      "type": "function",
      "constant": true
    },
    {
      "inputs": [
        {
          "internalType": "address",
          "name": "",
          "type": "address"
        },
        {
          "internalType": "uint256",
          "name": "",
          "type": "uint256"
        }
      ],
      "name": "userDocuments",
      "outputs": [
        {
          "internalType": "string",
          "name": "",
          "type": "string"
        }
      ],
      "stateMutability": "view",
      "type": "function",
      "constant": true
    },
    {
      "inputs": [
        {
          "internalType": "string",
          "name": "documentId",
          "type": "string"
        },
        {
          "internalType": "string",
          "name": "fileName",
          "type": "string"
        },
        {
          "internalType": "string",
          "name": "fileHash",
          "type": "string"
        },
        {
          "internalType": "string",
          "name": "domain",
          "type": "string"
        },
        {
          "internalType": "string",
          "name": "ipfsHash",
          "type": "string"
        }
      ],
      "name": "uploadDocument",
      "outputs": [],
      "stateMutability": "nonpayable",
      "type": "function"
    },
    {
      "inputs": [
        {
          "internalType": "string",
          "name": "documentId",
          "type": "string"
        },
        {
          "internalType": "string",
          "name": "newFileHash",
          "type": "string"
        },
        {
          "internalType": "string",
          "name": "updateReason",
          "type": "string"
        }
      ],
      "name": "updateDocument",
      "outputs": [],
      "stateMutability": "nonpayable",
      "type": "function"
    },
    {
      "inputs": [
        {
          "internalType": "string",
          "name": "documentId",
          "type": "string"
        },
        {
          "internalType": "address",
          "name": "recipient",
          "type": "address"
        },
        {
          "internalType": "string",
          "name": "accessLevel",
          "type": "string"
        }
      ],
      "name": "shareDocument",
      "outputs": [],
      "stateMutability": "nonpayable",
      "type": "function"
    },
    {
      "inputs": [
        {
          "internalType": "string",
          "name": "documentId",
          "type": "string"
        },
        {
          "internalType": "address",
          "name": "user",
          "type": "address"
        }
      ],
      "name": "revokeAccess",
      "outputs": [],
      "stateMutability": "nonpayable",
      "type": "function"
    },
    {
      "inputs": [
        {
          "internalType": "string",
          "name": "documentId",
          "type": "string"
        },
        {
          "internalType": "string",
          "name": "currentFileHash",
          "type": "string"
        }
      ],
      "name": "verifyDocument",
      "outputs": [
        {
          "internalType": "bool",
          "name": "isValid",
          "type": "bool"
        },
        {
          "internalType": "string",
          "name": "storedHash",
          "type": "string"
        }
      ],
      "stateMutability": "view",
      "type": "function",
      "constant": true
    },
    {
      "inputs": [
        {
          "internalType": "string",
          "name": "documentId",
          "type": "string"
        }
      ],
      "name": "getDocument",
      "outputs": [
        {
          "components": [
            {
              "internalType": "string",
              "name": "documentId",
              "type": "string"
            },
            {
              "internalType": "string",
              "name": "fileName",
              "type": "string"
            },
            {
              "internalType": "string",
              "name": "fileHash",
              "type": "string"
            },
            {
              "internalType": "string",
              "name": "domain",
              "type": "string"
            },
            {
              "internalType": "address",
              "name": "owner",
              "type": "address"
            },
            {
              "internalType": "uint256",
              "name": "timestamp",
              "type": "uint256"
            },
            {
              "internalType": "bool",
              "name": "isActive",
              "type": "bool"
            },
            {
              "internalType": "string",
              "name": "ipfsHash",
              "type": "string"
            }
          ],
          "internalType": "struct DocumentRegistry.Document",
          "name": "",
          "type": "tuple"
        }
      ],
      "stateMutability": "view",
      "type": "function",
      "constant": true
    },
    {
      "inputs": [
        {
          "internalType": "string",
          "name": "documentId",
          "type": "string"
        }
      ],
      "name": "getDocumentVersions",
      "outputs": [
        {
          "components": [
            {
              "internalType": "string",
              "name": "documentId",
              "type": "string"
            },
            {
              "internalType": "string",
              "name": "fileHash",
              "type": "string"
            },
            {
              "internalType": "uint256",
              "name": "version",
              "type": "uint256"
            },
            {
              "internalType": "address",
              "name": "updatedBy",
              "type": "address"
            },
            {
              "internalType": "uint256",
              "name": "timestamp",
              "type": "uint256"
            },
            {
              "internalType": "string",
              "name": "updateReason",
              "type": "string"
            }
          ],
          "internalType": "struct DocumentRegistry.DocumentVersion[]",
          "name": "",
          "type": "tuple[]"
        }
      ],
      "stateMutability": "view",
      "type": "function",
      "constant": true
    },
    {
      "inputs": [
        {
          "internalType": "string",
          "name": "documentId",
          "type": "string"
        }
      ],
      "name": "getShareRecords",
      "outputs": [
        {
          "components": [
            {
              "internalType": "string",
              "name": "documentId",
              "type": "string"
            },
            {
              "internalType": "address",
              "name": "sharedBy",
              "type": "address"
            },
            {
              "internalType": "address",
              "name": "sharedWith",
              "type": "address"
            },
            {
              "internalType": "uint256",
              "name": "timestamp",
              "type": "uint256"
            },
            {
              "internalType": "string",
              "name": "accessLevel",
              "type": "string"
            },
            {
              "internalType": "bool",
              "name": "isActive",
              "type": "bool"
            }
          ],
          "internalType": "struct DocumentRegistry.ShareRecord[]",
          "name": "",
          "type": "tuple[]"
        }
      ],
      "stateMutability": "view",
      "type": "function",
      "constant": true
    },
    {
      "inputs": [
        {
          "internalType": "string",
          "name": "documentId",
          "type": "string"
        }
      ],
      "name": "getAuditLogs",
      "outputs": [
        {
          "components": [
            {
              "internalType": "string",
              "name": "documentId",
              "type": "string"
            },
            {
              "internalType": "address",
              "name": "actor",
              "type": "address"
            },
            {
              "internalType": "string",
              "name": "action",
              "type": "string"
            },
            {
              "internalType": "uint256",
              "name": "timestamp",
              "type": "uint256"
            },
            {
              "internalType": "string",
              "name": "details",
              "type": "string"
            }
          ],
          "internalType": "struct DocumentRegistry.AuditLog[]",
          "name": "",
          "type": "tuple[]"
        }
      ],
      "stateMutability": "view",
      "type": "function",
      "constant": true
    },
    {
      "inputs": [
        {
          "internalType": "address",
          "name": "user",
          "type": "address"
        }
      ],
      "name": "getUserDocuments",
      "outputs": [
        {
          "internalType": "string[]",
          "name": "",
          "type": "string[]"
        }
      ],
      "stateMutability": "view",
      "type": "function",
      "constant": true
    },
    {
      "inputs": [
        {
          "internalType": "address",
          "name": "user",
          "type": "address"
        }
      ],
      "name": "getSharedDocuments",
      "outputs": [
        {
          "internalType": "string[]",
          "name": "",
          "type": "string[]"
        }
      ],
      "stateMutability": "view",
      "type": "function",
      "constant": true
    },
    {
      "inputs": [
        {
          "internalType": "string",
          "name": "documentId",
          "type": "string"
        },
        {
          "internalType": "address",
          "name": "user",
          "type": "address"
        }
      ],
      "name": "checkAccess",
      "outputs": [
        {
          "internalType": "bool",
          "name": "",
          "type": "bool"
        }
      ],
      "stateMutability": "view",
      "type": "function",
      "constant": true
    }
  ],
  "bytecode": "0x608060405234801561001057600080fd5b50600780546001600160a01b03191633179055613f3e806100326000396000f3fe608060405234801561001057600080fd5b506004361061012c5760003560e01c8063a4ca650b116100ad578063ca1ff68411610071578063ca1ff68414610323578063ce606ee014610336578063dfe0b5fe14610361578063e2c7df3d14610374578063e5bffe1b1461039957600080fd5b8063a4ca650b14610283578063a8759ee0146102a4578063a990114c146102b7578063b08b622b146102dc578063b3dd697b146102fc57600080fd5b8063577a1b92116100f4578063577a1b92146101e35780637ccb6a64146102035780638413fab01461022357806390a4b162146102435780639993ab121461026357600080fd5b8063073a83621461013157806313bd20e21461014657806324d8b90f146101995780633ff91d14146101bd57806344a08b36146101d0575b600080fd5b61014461013f3660046132e5565b6103ac565b005b610184610154366004613359565b81516020818401810180516006825292820194820194909420919093529091526000908152604090205460ff1681565b60405190151581526020015b60405180910390f35b6101ac6101a73660046133a7565b610796565b60405161019095949392919061343c565b6101446101cb366004613496565b61099f565b6101846101de366004613359565b610cc7565b6101f66101f13660046134f1565b610d0a565b604051610190919061351b565b610216610211366004613535565b610dc3565b6040516101909190613572565b610236610231366004613535565b61123d565b604051610190919061364b565b61025661025136600461370c565b611547565b6040516101909190613727565b610276610271366004613535565b611636565b6040516101909190613789565b61029661029136600461383b565b6119a7565b60405161019092919061389f565b6101f66102b23660046134f1565b611dc6565b6102ca6102c53660046133a7565b611de2565b604051610190969594939291906138ba565b6102ef6102ea366004613535565b611ff1565b604051610190919061391b565b61030f61030a366004613535565b61232e565b6040516101909897969594939291906139d7565b61025661033136600461370c565b612634565b600754610349906001600160a01b031681565b6040516001600160a01b039091168152602001610190565b61014461036f366004613359565b612718565b6103876103823660046133a7565b612aef565b60405161019096959493929190613a67565b6101446103a7366004613ac0565b612c7b565b82336001600160a01b03166000826040516103c79190613b92565b908152604051908190036020019020600401546001600160a01b03161461043f5760405162461bcd60e51b815260206004820152602160248201527f4f6e6c7920646f63756d656e74206f776e65722063616e2063616c6c207468696044820152607360f81b60648201526084015b60405180910390fd5b8360006001600160a01b031660008260405161045b9190613b92565b908152604051908190036020019020600401546001600160a01b0316036104be5760405162461bcd60e51b8152602060048201526017602482015276111bd8dd5b595b9d08191bd95cc81b9bdd08195e1a5cdd604a1b6044820152606401610436565b6001600160a01b0384166105145760405162461bcd60e51b815260206004820152601960248201527f496e76616c696420726563697069656e742061646472657373000000000000006044820152606401610436565b6006856040516105249190613b92565b90815260408051602092819003830190206001600160a01b0387166000908152925290205460ff16156105995760405162461bcd60e51b815260206004820152601760248201527f5573657220616c726561647920686173206163636573730000000000000000006044820152606401610436565b6040805160c0810182528681523360208201526001600160a01b0386168183015242606082015260808101859052600160a082015290516002906105de908890613b92565b9081526040516020918190038201902080546001810182556000918252919020825183926006029091019081906106159082613c31565b5060208201516001820180546001600160a01b039283166001600160a01b0319918216179091556040840151600284018054919093169116179055606082015160038201556080820151600482019061066e9082613c31565b5060a091909101516005909101805460ff191691151591909117905560405160019060069061069e908990613b92565b90815260408051602092819003830190206001600160a01b0389166000908152908352818120805460ff19169415159490941790935560058252822080546001810182559083529120016106f28782613c31565b506000846040516020016107069190613cf1565b60408051601f198184030181528282019091526005825264736861726560d81b6020830152915061073b908890339084612fc7565b856001600160a01b0316336001600160a01b03168860405161075d9190613b92565b604051908190038120907fff088edf520e0b571a2e69a53d931f77fda80441ff1b79fa8c5fa5f574db04ed90600090a450505050505050565b815160208184018101805160038252928201918501919091209190528054829081106107c157600080fd5b9060005260206000209060050201600091509150508060000180546107e590613bae565b80601f016020809104026020016040519081016040528092919081815260200182805461081190613bae565b801561085e5780601f106108335761010080835404028352916020019161085e565b820191906000526020600020905b81548152906001019060200180831161084157829003601f168201915b505050600184015460028501805494956001600160a01b0390921694919350915061088890613bae565b80601f01602080910402602001604051908101604052809291908181526020018280546108b490613bae565b80156109015780601f106108d657610100808354040283529160200191610901565b820191906000526020600020905b8154815290600101906020018083116108e457829003601f168201915b50505050509080600301549080600401805461091c90613bae565b80601f016020809104026020016040519081016040528092919081815260200182805461094890613bae565b80156109955780601f1061096a57610100808354040283529160200191610995565b820191906000526020600020905b81548152906001019060200180831161097857829003601f168201915b5050505050905085565b82336001600160a01b03166000826040516109ba9190613b92565b908152604051908190036020019020600401546001600160a01b031614610a2d5760405162461bcd60e51b815260206004820152602160248201527f4f6e6c7920646f63756d656e74206f776e65722063616e2063616c6c207468696044820152607360f81b6064820152608401610436565b8360006001600160a01b0316600082604051610a499190613b92565b908152604051908190036020019020600401546001600160a01b031603610aac5760405162461bcd60e51b8152602060048201526017602482015276111bd8dd5b595b9d08191bd95cc81b9bdd08195e1a5cdd604a1b6044820152606401610436565b6000845111610afd5760405162461bcd60e51b815260206004820152601660248201527f4e65772066696c652068617368207265717569726564000000000000000000006044820152606401610436565b60008086604051610b0e9190613b92565b9081526020016040518091039020905060006040518060c00160405280888152602001878152602001600189604051610b479190613b92565b90815260405190819003602001902054610b62906001613d4c565b8152602001336001600160a01b03168152602001428152602001868152509050600187604051610b929190613b92565b908152604051602091819003820190208054600181018255600091825291902082518392600602909101908190610bc99082613c31565b5060208201516001820190610bde9082613c31565b506040820151600282015560608201516003820180546001600160a01b0319166001600160a01b039092169190911790556080820151600482015560a08201516005820190610c2d9082613c31565b50505060028201610c3e8782613c31565b50610c6987336040518060400160405280600681526020016575706461746560d01b81525088612fc7565b6040513390610c79908990613b92565b60405180910390207ffdb970c1f48dfce1cd35d22f441f282223cc8604455c9d69bb50cb586029e91f8360400151604051610cb691815260200190565b60405180910390a350505050505050565b6000600683604051610cd99190613b92565b90815260408051602092819003830190206001600160a01b0385166000908152925290205460ff1690505b92915050565b60046020528160005260406000208181548110610d2657600080fd5b90600052602060002001600091509150508054610d4290613bae565b80601f0160208091040260200160405190810160405280929190818152602001828054610d6e90613bae565b8015610dbb5780601f10610d9057610100808354040283529160200191610dbb565b820191906000526020600020905b815481529060010190602001808311610d9e57829003601f168201915b505050505081565b610e166040518061010001604052806060815260200160608152602001606081526020016060815260200160006001600160a01b0316815260200160008152602001600015158152602001606081525090565b8160006001600160a01b0316600082604051610e329190613b92565b908152604051908190036020019020600401546001600160a01b031603610e955760405162461bcd60e51b8152602060048201526017602482015276111bd8dd5b595b9d08191bd95cc81b9bdd08195e1a5cdd604a1b6044820152606401610436565b600683604051610ea59190613b92565b9081526040805160209281900383019020336000908152925290205460ff16610f005760405162461bcd60e51b815260206004820152600d60248201526c1058d8d95cdcc819195b9a5959609a1b6044820152606401610436565b600083604051610f109190613b92565b908152602001604051809103902060405180610100016040529081600082018054610f3a90613bae565b80601f0160208091040260200160405190810160405280929190818152602001828054610f6690613bae565b8015610fb35780601f10610f8857610100808354040283529160200191610fb3565b820191906000526020600020905b815481529060010190602001808311610f9657829003601f168201915b50505050508152602001600182018054610fcc90613bae565b80601f0160208091040260200160405190810160405280929190818152602001828054610ff890613bae565b80156110455780601f1061101a57610100808354040283529160200191611045565b820191906000526020600020905b81548152906001019060200180831161102857829003601f168201915b5050505050815260200160028201805461105e90613bae565b80601f016020809104026020016040519081016040528092919081815260200182805461108a90613bae565b80156110d75780601f106110ac576101008083540402835291602001916110d7565b820191906000526020600020905b8154815290600101906020018083116110ba57829003601f168201915b505050505081526020016003820180546110f090613bae565b80601f016020809104026020016040519081016040528092919081815260200182805461111c90613bae565b80156111695780601f1061113e57610100808354040283529160200191611169565b820191906000526020600020905b81548152906001019060200180831161114c57829003601f168201915b505050918352505060048201546001600160a01b0316602082015260058201546040820152600682015460ff16151560608201526007820180546080909201916111b290613bae565b80601f01602080910402602001604051908101604052809291908181526020018280546111de90613bae565b801561122b5780601f106112005761010080835404028352916020019161122b565b820191906000526020600020905b81548152906001019060200180831161120e57829003601f168201915b50505050508152505091505b50919050565b60608160006001600160a01b031660008260405161125b9190613b92565b908152604051908190036020019020600401546001600160a01b0316036112be5760405162461bcd60e51b8152602060048201526017602482015276111bd8dd5b595b9d08191bd95cc81b9bdd08195e1a5cdd604a1b6044820152606401610436565b6006836040516112ce9190613b92565b9081526040805160209281900383019020336000908152925290205460ff168061132b5750336001600160a01b031660008460405161130d9190613b92565b908152604051908190036020019020600401546001600160a01b0316145b6113675760405162461bcd60e51b815260206004820152600d60248201526c1058d8d95cdcc819195b9a5959609a1b6044820152606401610436565b6002836040516113779190613b92565b9081526020016040518091039020805480602002602001604051908101604052809291908181526020016000905b8282101561153b57838290600052602060002090600602016040518060c00160405290816000820180546113d890613bae565b80601f016020809104026020016040519081016040528092919081815260200182805461140490613bae565b80156114515780601f1061142657610100808354040283529160200191611451565b820191906000526020600020905b81548152906001019060200180831161143457829003601f168201915b505050918352505060018201546001600160a01b03908116602083015260028301541660408201526003820154606082015260048201805460809092019161149890613bae565b80601f01602080910402602001604051908101604052809291908181526020018280546114c490613bae565b80156115115780601f106114e657610100808354040283529160200191611511565b820191906000526020600020905b8154815290600101906020018083116114f457829003601f168201915b50505091835250506005919091015460ff16151560209182015290825260019290920191016113a5565b50505050915050919050565b6001600160a01b0381166000908152600460209081526040808320805482518185028101850190935280835260609492939192909184015b8282101561162b57838290600052602060002001805461159e90613bae565b80601f01602080910402602001604051908101604052809291908181526020018280546115ca90613bae565b80156116175780601f106115ec57610100808354040283529160200191611617565b820191906000526020600020905b8154815290600101906020018083116115fa57829003601f168201915b50505050508152602001906001019061157f565b505050509050919050565b60608160006001600160a01b03166000826040516116549190613b92565b908152604051908190036020019020600401546001600160a01b0316036116b75760405162461bcd60e51b8152602060048201526017602482015276111bd8dd5b595b9d08191bd95cc81b9bdd08195e1a5cdd604a1b6044820152606401610436565b6006836040516116c79190613b92565b9081526040805160209281900383019020336000908152925290205460ff16806117245750336001600160a01b03166000846040516117069190613b92565b908152604051908190036020019020600401546001600160a01b0316145b6117605760405162461bcd60e51b815260206004820152600d60248201526c1058d8d95cdcc819195b9a5959609a1b6044820152606401610436565b6003836040516117709190613b92565b9081526020016040518091039020805480602002602001604051908101604052809291908181526020016000905b8282101561153b57838290600052602060002090600502016040518060a00160405290816000820180546117d190613bae565b80601f01602080910402602001604051908101604052809291908181526020018280546117fd90613bae565b801561184a5780601f1061181f5761010080835404028352916020019161184a565b820191906000526020600020905b81548152906001019060200180831161182d57829003601f168201915b505050918352505060018201546001600160a01b0316602082015260028201805460409092019161187a90613bae565b80601f01602080910402602001604051908101604052809291908181526020018280546118a690613bae565b80156118f35780601f106118c8576101008083540402835291602001916118f3565b820191906000526020600020905b8154815290600101906020018083116118d657829003601f168201915b505050505081526020016003820154815260200160048201805461191690613bae565b80601f016020809104026020016040519081016040528092919081815260200182805461194290613bae565b801561198f5780601f106119645761010080835404028352916020019161198f565b820191906000526020600020905b81548152906001019060200180831161197257829003601f168201915b5050505050815250508152602001906001019061179e565b600060608360006001600160a01b03166000826040516119c79190613b92565b908152604051908190036020019020600401546001600160a01b031603611a2a5760405162461bcd60e51b8152602060048201526017602482015276111bd8dd5b595b9d08191bd95cc81b9bdd08195e1a5cdd604a1b6044820152606401610436565b60008086604051611a3b9190613b92565b908152602001604051809103902060405180610100016040529081600082018054611a6590613bae565b80601f0160208091040260200160405190810160405280929190818152602001828054611a9190613bae565b8015611ade5780601f10611ab357610100808354040283529160200191611ade565b820191906000526020600020905b815481529060010190602001808311611ac157829003601f168201915b50505050508152602001600182018054611af790613bae565b80601f0160208091040260200160405190810160405280929190818152602001828054611b2390613bae565b8015611b705780601f10611b4557610100808354040283529160200191611b70565b820191906000526020600020905b815481529060010190602001808311611b5357829003601f168201915b50505050508152602001600282018054611b8990613bae565b80601f0160208091040260200160405190810160405280929190818152602001828054611bb590613bae565b8015611c025780601f10611bd757610100808354040283529160200191611c02565b820191906000526020600020905b815481529060010190602001808311611be557829003601f168201915b50505050508152602001600382018054611c1b90613bae565b80601f0160208091040260200160405190810160405280929190818152602001828054611c4790613bae565b8015611c945780601f10611c6957610100808354040283529160200191611c94565b820191906000526020600020905b815481529060010190602001808311611c7757829003601f168201915b505050918352505060048201546001600160a01b0316602082015260058201546040820152600682015460ff1615156060820152600782018054608090920191611cdd90613bae565b80601f0160208091040260200160405190810160405280929190818152602001828054611d0990613bae565b8015611d565780601f10611d2b57610100808354040283529160200191611d56565b820191906000526020600020905b815481529060010190602001808311611d3957829003601f168201915b505050505081525050905084604051602001611d729190613b92565b604051602081830303815290604052805190602001208160400151604051602001611d9d9190613b92565b604051602081830303815290604052805190602001201481604001519350935050509250929050565b60056020528160005260406000208181548110610d2657600080fd5b81516020818401810180516001825292820191850191909120919052805482908110611e0d57600080fd5b906000526020600020906006020160009150915050806000018054611e3190613bae565b80601f0160208091040260200160405190810160405280929190818152602001828054611e5d90613bae565b8015611eaa5780601f10611e7f57610100808354040283529160200191611eaa565b820191906000526020600020905b815481529060010190602001808311611e8d57829003601f168201915b505050505090806001018054611ebf90613bae565b80601f0160208091040260200160405190810160405280929190818152602001828054611eeb90613bae565b8015611f385780601f10611f0d57610100808354040283529160200191611f38565b820191906000526020600020905b815481529060010190602001808311611f1b57829003601f168201915b505050600284015460038501546004860154600587018054969793966001600160a01b03909316955090935090611f6e90613bae565b80601f0160208091040260200160405190810160405280929190818152602001828054611f9a90613bae565b8015611fe75780601f10611fbc57610100808354040283529160200191611fe7565b820191906000526020600020905b815481529060010190602001808311611fca57829003601f168201915b5050505050905086565b60608160006001600160a01b031660008260405161200f9190613b92565b908152604051908190036020019020600401546001600160a01b0316036120725760405162461bcd60e51b8152602060048201526017602482015276111bd8dd5b595b9d08191bd95cc81b9bdd08195e1a5cdd604a1b6044820152606401610436565b6006836040516120829190613b92565b9081526040805160209281900383019020336000908152925290205460ff166120dd5760405162461bcd60e51b815260206004820152600d60248201526c1058d8d95cdcc819195b9a5959609a1b6044820152606401610436565b6001836040516120ed9190613b92565b9081526020016040518091039020805480602002602001604051908101604052809291908181526020016000905b8282101561153b57838290600052602060002090600602016040518060c001604052908160008201805461214e90613bae565b80601f016020809104026020016040519081016040528092919081815260200182805461217a90613bae565b80156121c75780601f1061219c576101008083540402835291602001916121c7565b820191906000526020600020905b8154815290600101906020018083116121aa57829003601f168201915b505050505081526020016001820180546121e090613bae565b80601f016020809104026020016040519081016040528092919081815260200182805461220c90613bae565b80156122595780601f1061222e57610100808354040283529160200191612259565b820191906000526020600020905b81548152906001019060200180831161223c57829003601f168201915b50505091835250506002820154602082015260038201546001600160a01b031660408201526004820154606082015260058201805460809092019161229d90613bae565b80601f01602080910402602001604051908101604052809291908181526020018280546122c990613bae565b80156123165780601f106122eb57610100808354040283529160200191612316565b820191906000526020600020905b8154815290600101906020018083116122f957829003601f168201915b5050505050815250508152602001906001019061211b565b805160208183018101805160008252928201919093012091528054819061235490613bae565b80601f016020809104026020016040519081016040528092919081815260200182805461238090613bae565b80156123cd5780601f106123a2576101008083540402835291602001916123cd565b820191906000526020600020905b8154815290600101906020018083116123b057829003601f168201915b5050505050908060010180546123e290613bae565b80601f016020809104026020016040519081016040528092919081815260200182805461240e90613bae565b801561245b5780601f106124305761010080835404028352916020019161245b565b820191906000526020600020905b81548152906001019060200180831161243e57829003601f168201915b50505050509080600201805461247090613bae565b80601f016020809104026020016040519081016040528092919081815260200182805461249c90613bae565b80156124e95780601f106124be576101008083540402835291602001916124e9565b820191906000526020600020905b8154815290600101906020018083116124cc57829003601f168201915b5050505050908060030180546124fe90613bae565b80601f016020809104026020016040519081016040528092919081815260200182805461252a90613bae565b80156125775780601f1061254c57610100808354040283529160200191612577565b820191906000526020600020905b81548152906001019060200180831161255a57829003601f168201915b50505060048401546005850154600686015460078701805496976001600160a01b039094169692955060ff9091169350906125b190613bae565b80601f01602080910402602001604051908101604052809291908181526020018280546125dd90613bae565b801561262a5780601f106125ff5761010080835404028352916020019161262a565b820191906000526020600020905b81548152906001019060200180831161260d57829003601f168201915b5050505050905088565b6001600160a01b0381166000908152600560209081526040808320805482518185028101850190935280835260609492939192909184015b8282101561162b57838290600052602060002001805461268b90613bae565b80601f01602080910402602001604051908101604052809291908181526020018280546126b790613bae565b80156127045780601f106126d957610100808354040283529160200191612704565b820191906000526020600020905b8154815290600101906020018083116126e757829003601f168201915b50505050508152602001906001019061266c565b81336001600160a01b03166000826040516127339190613b92565b908152604051908190036020019020600401546001600160a01b0316146127a65760405162461bcd60e51b815260206004820152602160248201527f4f6e6c7920646f63756d656e74206f776e65722063616e2063616c6c207468696044820152607360f81b6064820152608401610436565b8260006001600160a01b03166000826040516127c29190613b92565b908152604051908190036020019020600401546001600160a01b0316036128255760405162461bcd60e51b8152602060048201526017602482015276111bd8dd5b595b9d08191bd95cc81b9bdd08195e1a5cdd604a1b6044820152606401610436565b6006846040516128359190613b92565b90815260408051602092819003830190206001600160a01b0386166000908152925290205460ff166128a95760405162461bcd60e51b815260206004820152601960248201527f5573657220646f6573206e6f74206861766520616363657373000000000000006044820152606401610436565b336001600160a01b038416036129015760405162461bcd60e51b815260206004820152601f60248201527f43616e6e6f74207265766f6b65206163636573732066726f6d206f776e6572006044820152606401610436565b60006006856040516129139190613b92565b90815260408051602092819003830181206001600160a01b03881660009081529352908220805460ff19169315159390931790925590600290612957908790613b92565b9081526020016040518091039020905060005b8154811015612a2c57846001600160a01b031682828154811061298f5761298f613d5f565b60009182526020909120600260069092020101546001600160a01b03161480156129de57508181815481106129c6576129c6613d5f565b600091825260209091206005600690920201015460ff165b15612a1a5760008282815481106129f7576129f7613d5f565b60009182526020909120600690910201600501805460ff19169115159190911790555b80612a2481613d75565b91505061296a565b50612a3784866130a1565b612a968533604051806040016040528060068152602001657265766f6b6560d01b8152506040518060400160405280600e81526020017f416363657373207265766f6b6564000000000000000000000000000000000000815250612fc7565b836001600160a01b0316336001600160a01b031686604051612ab89190613b92565b604051908190038120907f9a175c80b65b5ec3fad5b63b516cdff94862c60ee8cd524503358ba3e36fd68190600090a45050505050565b81516020818401810180516002825292820191850191909120919052805482908110612b1a57600080fd5b906000526020600020906006020160009150915050806000018054612b3e90613bae565b80601f0160208091040260200160405190810160405280929190818152602001828054612b6a90613bae565b8015612bb75780601f10612b8c57610100808354040283529160200191612bb7565b820191906000526020600020905b815481529060010190602001808311612b9a57829003601f168201915b5050505060018301546002840154600385015460048601805495966001600160a01b03948516969490931694509092612bef90613bae565b80601f0160208091040260200160405190810160405280929190818152602001828054612c1b90613bae565b8015612c685780601f10612c3d57610100808354040283529160200191612c68565b820191906000526020600020905b815481529060010190602001808311612c4b57829003601f168201915b5050506005909301549192505060ff1686565b60006001600160a01b0316600086604051612c969190613b92565b908152604051908190036020019020600401546001600160a01b031614612cff5760405162461bcd60e51b815260206004820152601a60248201527f446f63756d656e7420494420616c7265616479206578697374730000000000006044820152606401610436565b6000835111612d505760405162461bcd60e51b815260206004820152601260248201527f46696c65206861736820726571756972656400000000000000000000000000006044820152606401610436565b6000845111612da15760405162461bcd60e51b815260206004820152601260248201527f46696c65206e616d6520726571756972656400000000000000000000000000006044820152606401610436565b604051806101000160405280868152602001858152602001848152602001838152602001336001600160a01b0316815260200142815260200160011515815260200182815250600086604051612df79190613b92565b90815260405190819003602001902081518190612e149082613c31565b5060208201516001820190612e299082613c31565b5060408201516002820190612e3e9082613c31565b5060608201516003820190612e539082613c31565b5060808201516004820180546001600160a01b0319166001600160a01b0390921691909117905560a0820151600582015560c082015160068201805460ff191691151591909117905560e08201516007820190612eb09082613c31565b509050506001600686604051612ec69190613b92565b9081526040805160209281900383019020336000908152908352818120805460ff1916941515949094179093556004825282208054600181018255908352912001612f118682613c31565b50612f718533604051806040016040528060068152602001651d5c1b1bd85960d21b8152506040518060400160405280601f81526020017f446f63756d656e742075706c6f6164656420746f20626c6f636b636861696e00815250612fc7565b6040513390612f81908790613b92565b60405180910390207fbdc7fde3b4a71173cee079101fe0d18731cbf1c571b1a8b63ff063c95367ac7685604051612fb8919061351b565b60405180910390a35050505050565b6040805160a0810182528581526001600160a01b0385166020820152808201849052426060820152608081018390529051600390613006908790613b92565b90815260405160209181900382019020805460018101825560009182529190208251839260050290910190819061303d9082613c31565b5060208201516001820180546001600160a01b0319166001600160a01b03909216919091179055604082015160028201906130789082613c31565b5060608201516003820155608082015160048201906130979082613c31565b5050505050505050565b6001600160a01b0382166000908152600560205260408120905b81548110156131ca57826040516020016130d59190613b92565b604051602081830303815290604052805190602001208282815481106130fd576130fd613d5f565b906000526020600020016040516020016131179190613d8e565b60405160208183030381529060405280519060200120036131b8578154829061314290600190613e04565b8154811061315257613152613d5f565b9060005260206000200182828154811061316e5761316e613d5f565b9060005260206000200190816131849190613e17565b508180548061319557613195613ef2565b6001900381819060005260206000200160006131b191906131d0565b90556131ca565b806131c281613d75565b9150506130bb565b50505050565b5080546131dc90613bae565b6000825580601f106131ec575050565b601f01602090049060005260206000209081019061320a919061320d565b50565b5b80821115613222576000815560010161320e565b5090565b634e487b7160e01b600052604160045260246000fd5b600082601f83011261324d57600080fd5b813567ffffffffffffffff8082111561326857613268613226565b604051601f8301601f19908116603f0116810190828211818310171561329057613290613226565b816040528381528660208588010111156132a957600080fd5b836020870160208301376000602085830101528094505050505092915050565b80356001600160a01b03811681146132e057600080fd5b919050565b6000806000606084860312156132fa57600080fd5b833567ffffffffffffffff8082111561331257600080fd5b61331e8783880161323c565b945061332c602087016132c9565b9350604086013591508082111561334257600080fd5b5061334f8682870161323c565b9150509250925092565b6000806040838503121561336c57600080fd5b823567ffffffffffffffff81111561338357600080fd5b61338f8582860161323c565b92505061339e602084016132c9565b90509250929050565b600080604083850312156133ba57600080fd5b823567ffffffffffffffff8111156133d157600080fd5b6133dd8582860161323c565b95602094909401359450505050565b60005b838110156134075781810151838201526020016133ef565b50506000910152565b600081518084526134288160208601602086016133ec565b601f01601f19169290920160200192915050565b60a08152600061344f60a0830188613410565b6001600160a01b038716602084015282810360408401526134708187613410565b9050846060840152828103608084015261348a8185613410565b98975050505050505050565b6000806000606084860312156134ab57600080fd5b833567ffffffffffffffff808211156134c357600080fd5b6134cf8783880161323c565b945060208601359150808211156134e557600080fd5b61332c8783880161323c565b6000806040838503121561350457600080fd5b61350d836132c9565b946020939093013593505050565b60208152600061352e6020830184613410565b9392505050565b60006020828403121561354757600080fd5b813567ffffffffffffffff81111561355e57600080fd5b61356a8482850161323c565b949350505050565b6020815260008251610100806020850152613591610120850183613410565b91506020850151601f19808685030160408701526135af8483613410565b935060408701519150808685030160608701526135cc8483613410565b935060608701519150808685030160808701526135e98483613410565b93506080870151915061360760a08701836001600160a01b03169052565b60a087015160c087015260c0870151915061362660e087018315159052565b60e08701519150808685030183870152506136418382613410565b9695505050505050565b60006020808301818452808551808352604092508286019150828160051b87010184880160005b838110156136fe57603f19898403018552815160c0815181865261369882870182613410565b838b01516001600160a01b03908116888d01528a850151168a88015260608085015190880152608080850151888303828a015291935091506136da8382613410565b60a09485015115159790940196909652505094870194925090860190600101613672565b509098975050505050505050565b60006020828403121561371e57600080fd5b61352e826132c9565b6000602080830181845280855180835260408601915060408160051b870101925083870160005b8281101561377c57603f1988860301845261376a858351613410565b9450928501929085019060010161374e565b5092979650505050505050565b60006020808301818452808551808352604092508286019150828160051b87010184880160005b838110156136fe57603f19898403018552815160a081518186526137d682870182613410565b9150506001600160a01b0389830151168986015287820151858203898701526137ff8282613410565b9150506060808301518187015250608080830151925085820381870152506138278183613410565b9689019694505050908601906001016137b0565b6000806040838503121561384e57600080fd5b823567ffffffffffffffff8082111561386657600080fd5b6138728683870161323c565b9350602085013591508082111561388857600080fd5b506138958582860161323c565b9150509250929050565b821515815260406020820152600061356a6040830184613410565b60c0815260006138cd60c0830189613410565b82810360208401526138df8189613410565b90508660408401526001600160a01b038616606084015284608084015282810360a084015261390e8185613410565b9998505050505050505050565b60006020808301818452808551808352604092508286019150828160051b87010184880160005b838110156136fe57603f19898403018552815160c0815181865261396882870182613410565b915050888201518582038a8701526139808282613410565b838a0151878b01526060808501516001600160a01b0316908801526080808501519088015260a0938401518782039488019490945291506139c390508183613410565b968901969450505090860190600101613942565b60006101008083526139eb8184018c613410565b905082810360208401526139ff818b613410565b90508281036040840152613a13818a613410565b90508281036060840152613a278189613410565b90506001600160a01b03871660808401528560a084015284151560c084015282810360e0840152613a588185613410565b9b9a5050505050505050505050565b60c081526000613a7a60c0830189613410565b6001600160a01b03888116602085015287166040840152606083018690528281036080840152613aaa8186613410565b91505082151560a0830152979650505050505050565b600080600080600060a08688031215613ad857600080fd5b853567ffffffffffffffff80821115613af057600080fd5b613afc89838a0161323c565b96506020880135915080821115613b1257600080fd5b613b1e89838a0161323c565b95506040880135915080821115613b3457600080fd5b613b4089838a0161323c565b94506060880135915080821115613b5657600080fd5b613b6289838a0161323c565b93506080880135915080821115613b7857600080fd5b50613b858882890161323c565b9150509295509295909350565b60008251613ba48184602087016133ec565b9190910192915050565b600181811c90821680613bc257607f821691505b60208210810361123757634e487b7160e01b600052602260045260246000fd5b601f821115613c2c57600081815260208120601f850160051c81016020861015613c095750805b601f850160051c820191505b81811015613c2857828155600101613c15565b5050505b505050565b815167ffffffffffffffff811115613c4b57613c4b613226565b613c5f81613c598454613bae565b84613be2565b602080601f831160018114613c945760008415613c7c5750858301515b600019600386901b1c1916600185901b178555613c28565b600085815260208120601f198616915b82811015613cc357888601518255948401946001909101908401613ca4565b5085821015613ce15787850151600019600388901b60f8161c191681555b5050505050600190811b01905550565b7f536861726564207769746820616363657373206c6576656c3a20000000000000815260008251613d2981601a8501602087016133ec565b91909101601a0192915050565b634e487b7160e01b600052601160045260246000fd5b80820180821115610d0457610d04613d36565b634e487b7160e01b600052603260045260246000fd5b600060018201613d8757613d87613d36565b5060010190565b6000808354613d9c81613bae565b60018281168015613db45760018114613dc957613df8565b60ff1984168752821515830287019450613df8565b8760005260208060002060005b85811015613def5781548a820152908401908201613dd6565b50505082870194505b50929695505050505050565b81810381811115610d0457610d04613d36565b818103613e22575050565b613e2c8254613bae565b67ffffffffffffffff811115613e4457613e44613226565b613e5281613c598454613bae565b6000601f821160018114613e865760008315613e6e5750848201545b600019600385901b1c1916600184901b178455613eeb565b600085815260209020601f19841690600086815260209020845b83811015613ec05782860154825560019586019590910190602001613ea0565b5085831015613ede5781850154600019600388901b60f8161c191681555b50505060018360011b0184555b5050505050565b634e487b7160e01b600052603160045260246000fdfea2646970667358221220b836453d789480e149da95cd79b0a6a0787449285249dc0bddb34d1708bcef7564736f6c63430008150033",
  "immutableReferences": {},
  "source": "// SPDX-License-Identifier: MIT\r\npragma solidity ^0.8.0;\r\n\r\n/**\r\n * DocumentRegistry Smart Contract\r\n * Handles secure document storage, sharing, and audit tracking\r\n * Stores document hashes and metadata on blockchain for integrity verification\r\n */\r\ncontract DocumentRegistry {\r\n    \r\n    // Document structure\r\n    struct Document {\r\n        string documentId;          // Unique document identifier\r\n        string fileName;            // Original file name\r\n        string fileHash;            // SHA-256 hash of document content\r\n        string domain;              // Domain (finance, healthcare, legal, general)\r\n        address owner;              // Document owner's wallet address\r\n        uint256 timestamp;          // Creation timestamp\r\n        bool isActive;              // Document status\r\n        string ipfsHash;            // Optional IPFS hash for decentralized storage\r\n    }\r\n    \r\n    // Document version for tracking updates\r\n    struct DocumentVersion {\r\n        string documentId;          // Reference to original document\r\n        string fileHash;            // New file hash\r\n        uint256 version;            // Version number\r\n        address updatedBy;          // Who updated the document\r\n        uint256 timestamp;          // Update timestamp\r\n        string updateReason;        // Reason for update\r\n    }\r\n    \r\n    // Sharing record\r\n    struct ShareRecord {\r\n        string documentId;          // Document being shared\r\n        address sharedBy;           // Who shared the document\r\n        address sharedWith;         // Recipient (0x0 for public)\r\n        uint256 timestamp;          // When shared\r\n        string accessLevel;         // read, write, admin\r\n        bool isActive;              // Share status\r\n    }\r\n    \r\n    // Audit log entry\r\n    struct AuditLog {\r\n        string documentId;          // Document reference\r\n        address actor;              // Who performed the action\r\n        string action;              // upload, update, share, revoke\r\n        uint256 timestamp;          // When action occurred\r\n        string details;             // Additional details\r\n    }\r\n    \r\n    // Events for frontend notifications\r\n    event DocumentUploaded(string indexed documentId, address indexed owner, string fileHash);\r\n    event DocumentUpdated(string indexed documentId, address indexed updatedBy, uint256 version);\r\n    event DocumentShared(string indexed documentId, address indexed sharedBy, address indexed sharedWith);\r\n    event DocumentAccessRevoked(string indexed documentId, address indexed owner, address indexed revokedFrom);\r\n    event IntegrityViolation(string indexed documentId, string expectedHash, string actualHash);\r\n    \r\n    // Storage mappings\r\n    mapping(string => Document) public documents;\r\n    mapping(string => DocumentVersion[]) public documentVersions;\r\n    mapping(string => ShareRecord[]) public shareRecords;\r\n    mapping(string => AuditLog[]) public auditLogs;\r\n    mapping(address => string[]) public userDocuments; // Documents owned by user\r\n    mapping(address => string[]) public sharedWithUser; // Documents shared with user\r\n    \r\n    // Access control\r\n    mapping(string => mapping(address => bool)) public hasAccess;\r\n    \r\n    // Contract owner\r\n    address public contractOwner;\r\n    \r\n    modifier onlyOwner() {\r\n        require(msg.sender == contractOwner, \"Only contract owner can call this\");\r\n        _;\r\n    }\r\n    \r\n    modifier onlyDocumentOwner(string memory documentId) {\r\n        require(documents[documentId].owner == msg.sender, \"Only document owner can call this\");\r\n        _;\r\n    }\r\n    \r\n    modifier documentExists(string memory documentId) {\r\n        require(documents[documentId].owner != address(0), \"Document does not exist\");\r\n        _;\r\n    }\r\n    \r\n    constructor() {\r\n        contractOwner = msg.sender;\r\n    }\r\n    \r\n    /**\r\n     * Upload a new document to the registry\r\n     */\r\n    function uploadDocument(\r\n        string memory documentId,\r\n        string memory fileName,\r\n        string memory fileHash,\r\n        string memory domain,\r\n        string memory ipfsHash\r\n    ) external {\r\n        require(documents[documentId].owner == address(0), \"Document ID already exists\");\r\n        require(bytes(fileHash).length > 0, \"File hash required\");\r\n        require(bytes(fileName).length > 0, \"File name required\");\r\n        \r\n        // Create document record\r\n        documents[documentId] = Document({\r\n            documentId: documentId,\r\n            fileName: fileName,\r\n            fileHash: fileHash,\r\n            domain: domain,\r\n            owner: msg.sender,\r\n            timestamp: block.timestamp,\r\n            isActive: true,\r\n            ipfsHash: ipfsHash\r\n        });\r\n        \r\n        // Grant access to owner\r\n        hasAccess[documentId][msg.sender] = true;\r\n        \r\n        // Add to user's document list\r\n        userDocuments[msg.sender].push(documentId);\r\n        \r\n        // Create audit log\r\n        _addAuditLog(documentId, msg.sender, \"upload\", \"Document uploaded to blockchain\");\r\n        \r\n        emit DocumentUploaded(documentId, msg.sender, fileHash);\r\n    }\r\n    \r\n    /**\r\n     * Update an existing document (creates new version)\r\n     */\r\n    function updateDocument(\r\n        string memory documentId,\r\n        string memory newFileHash,\r\n        string memory updateReason\r\n    ) external onlyDocumentOwner(documentId) documentExists(documentId) {\r\n        require(bytes(newFileHash).length > 0, \"New file hash required\");\r\n        \r\n        Document storage doc = documents[documentId];\r\n        \r\n        // Create version record\r\n        DocumentVersion memory newVersion = DocumentVersion({\r\n            documentId: documentId,\r\n            fileHash: newFileHash,\r\n            version: documentVersions[documentId].length + 1,\r\n            updatedBy: msg.sender,\r\n            timestamp: block.timestamp,\r\n            updateReason: updateReason\r\n        });\r\n        \r\n        documentVersions[documentId].push(newVersion);\r\n        \r\n        // Update main document hash\r\n        doc.fileHash = newFileHash;\r\n        \r\n        // Create audit log\r\n        _addAuditLog(documentId, msg.sender, \"update\", updateReason);\r\n        \r\n        emit DocumentUpdated(documentId, msg.sender, newVersion.version);\r\n    }\r\n    \r\n    /**\r\n     * Share document with another user\r\n     */\r\n    function shareDocument(\r\n        string memory documentId,\r\n        address recipient,\r\n        string memory accessLevel\r\n    ) external onlyDocumentOwner(documentId) documentExists(documentId) {\r\n        require(recipient != address(0), \"Invalid recipient address\");\r\n        require(!hasAccess[documentId][recipient], \"User already has access\");\r\n        \r\n        // Create share record\r\n        ShareRecord memory shareRecord = ShareRecord({\r\n            documentId: documentId,\r\n            sharedBy: msg.sender,\r\n            sharedWith: recipient,\r\n            timestamp: block.timestamp,\r\n            accessLevel: accessLevel,\r\n            isActive: true\r\n        });\r\n        \r\n        shareRecords[documentId].push(shareRecord);\r\n        \r\n        // Grant access\r\n        hasAccess[documentId][recipient] = true;\r\n        sharedWithUser[recipient].push(documentId);\r\n        \r\n        // Create audit log\r\n        string memory details = string(abi.encodePacked(\"Shared with access level: \", accessLevel));\r\n        _addAuditLog(documentId, msg.sender, \"share\", details);\r\n        \r\n        emit DocumentShared(documentId, msg.sender, recipient);\r\n    }\r\n    \r\n    /**\r\n     * Revoke access to a document\r\n     */\r\n    function revokeAccess(\r\n        string memory documentId,\r\n        address user\r\n    ) external onlyDocumentOwner(documentId) documentExists(documentId) {\r\n        require(hasAccess[documentId][user], \"User does not have access\");\r\n        require(user != msg.sender, \"Cannot revoke access from owner\");\r\n        \r\n        // Revoke access\r\n        hasAccess[documentId][user] = false;\r\n        \r\n        // Mark share records as inactive\r\n        ShareRecord[] storage shares = shareRecords[documentId];\r\n        for (uint i = 0; i < shares.length; i++) {\r\n            if (shares[i].sharedWith == user && shares[i].isActive) {\r\n                shares[i].isActive = false;\r\n            }\r\n        }\r\n        \r\n        // Remove from user's shared documents\r\n        _removeFromSharedList(user, documentId);\r\n        \r\n        // Create audit log\r\n        _addAuditLog(documentId, msg.sender, \"revoke\", \"Access revoked\");\r\n        \r\n        emit DocumentAccessRevoked(documentId, msg.sender, user);\r\n    }\r\n    \r\n    /**\r\n     * Verify document integrity\r\n     */\r\n    function verifyDocument(\r\n        string memory documentId,\r\n        string memory currentFileHash\r\n    ) external view documentExists(documentId) returns (bool isValid, string memory storedHash) {\r\n        Document memory doc = documents[documentId];\r\n        return (\r\n            keccak256(abi.encodePacked(doc.fileHash)) == keccak256(abi.encodePacked(currentFileHash)),\r\n            doc.fileHash\r\n        );\r\n    }\r\n    \r\n    /**\r\n     * Get document details\r\n     */\r\n    function getDocument(string memory documentId) \r\n        external \r\n        view \r\n        documentExists(documentId) \r\n        returns (Document memory) {\r\n        require(hasAccess[documentId][msg.sender], \"Access denied\");\r\n        return documents[documentId];\r\n    }\r\n    \r\n    /**\r\n     * Get document versions\r\n     */\r\n    function getDocumentVersions(string memory documentId)\r\n        external\r\n        view\r\n        documentExists(documentId)\r\n        returns (DocumentVersion[] memory) {\r\n        require(hasAccess[documentId][msg.sender], \"Access denied\");\r\n        return documentVersions[documentId];\r\n    }\r\n    \r\n    /**\r\n     * Get document share records\r\n     */\r\n    function getShareRecords(string memory documentId)\r\n        external\r\n        view\r\n        documentExists(documentId)\r\n        returns (ShareRecord[] memory) {\r\n        require(hasAccess[documentId][msg.sender] || documents[documentId].owner == msg.sender, \"Access denied\");\r\n        return shareRecords[documentId];\r\n    }\r\n    \r\n    /**\r\n     * Get audit logs for a document\r\n     */\r\n    function getAuditLogs(string memory documentId)\r\n        external\r\n        view\r\n        documentExists(documentId)\r\n        returns (AuditLog[] memory) {\r\n        require(hasAccess[documentId][msg.sender] || documents[documentId].owner == msg.sender, \"Access denied\");\r\n        return auditLogs[documentId];\r\n    }\r\n    \r\n    /**\r\n     * Get user's documents\r\n     */\r\n    function getUserDocuments(address user) external view returns (string[] memory) {\r\n        return userDocuments[user];\r\n    }\r\n    \r\n    /**\r\n     * Get documents shared with user\r\n     */\r\n    function getSharedDocuments(address user) external view returns (string[] memory) {\r\n        return sharedWithUser[user];\r\n    }\r\n    \r\n    /**\r\n     * Check if user has access to document\r\n     */\r\n    function checkAccess(string memory documentId, address user) external view returns (bool) {\r\n        return hasAccess[documentId][user];\r\n    }\r\n    \r\n    // Internal functions\r\n    function _addAuditLog(\r\n        string memory documentId,\r\n        address actor,\r\n        string memory action,\r\n        string memory details\r\n    ) internal {\r\n        AuditLog memory logEntry = AuditLog({\r\n            documentId: documentId,\r\n            actor: actor,\r\n            action: action,\r\n            timestamp: block.timestamp,\r\n            details: details\r\n        });\r\n        \r\n        auditLogs[documentId].push(logEntry);\r\n    }\r\n    \r\n    function _removeFromSharedList(address user, string memory documentId) internal {\r\n        string[] storage userShared = sharedWithUser[user];\r\n        for (uint i = 0; i < userShared.length; i++) {\r\n            if (keccak256(abi.encodePacked(userShared[i])) == keccak256(abi.encodePacked(documentId))) {\r\n                userShared[i] = userShared[userShared.length - 1];\r\n                userShared.pop();\r\n                break;\r\n            }\r\n        }\r\n    }\r\n}",
  "sourcePath": "E:\\IdeaProject\\contract\\contracts\\DocumentRegistry.sol",
  "compiler": {
    "name": "solc",
    "version": "0.8.21+commit.d9974bed.Emscripten.clang"
  },
  "schemaVersion": "3.4.16",
  "updatedAt": "2025-08-16T07:01:34.443Z",
  "networkType": "ethereum",
  "devdoc": {
    "kind": "dev",
    "methods": {},
    "version": 1
  },
  "userdoc": {
    "kind": "user",
    "methods": {
      "checkAccess(string,address)": {
        "notice": "Check if user has access to document"
      },
      "getAuditLogs(string)": {
        "notice": "Get audit logs for a document"
      },
      "getDocument(string)": {
        "notice": "Get document details"
      },
      "getDocumentVersions(string)": {
        "notice": "Get document versions"
      },
      "getShareRecords(string)": {
        "notice": "Get document share records"
      },
      "getSharedDocuments(address)": {
        "notice": "Get documents shared with user"
      },
      "getUserDocuments(address)": {
        "notice": "Get user's documents"
      },
      "revokeAccess(string,address)": {
        "notice": "Revoke access to a document"
      },
      "shareDocument(string,address,string)": {
        "notice": "Share document with another user"
      },
      "updateDocument(string,string,string)": {
        "notice": "Update an existing document (creates new version)"
      },
      "uploadDocument(string,string,string,string,string)": {
        "notice": "Upload a new document to the registry"
      },
      "verifyDocument(string,string)": {
        "notice": "Verify document integrity"
      }
    },
    "notice": "DocumentRegistry Smart Contract Handles secure document storage, sharing, and audit tracking Stores document hashes and metadata on blockchain for integrity verification",
    "version": 1
  }
}